:020000040800F2
:100000008807002089010008231700080F15000841
:10001000211700088F020008151B000800000000CF
:10002000000000000000000000000000271700088A
:100030009102000800000000251700082917000899
:10004000A3010008A3010008A3010008A301000800
:10005000A3010008A3010008A3010008A3010008F0
:10006000A3010008A3010008A3010008A3010008E0
:10007000A3010008A3010008A3010008A3010008D0
:10008000A3010008A3010008A3010008A3010008C0
:10009000A3010008A3010008A3010008A3010008B0
:1000A000A3010008A3010008A3010008A3010008A0
:1000B000A30100088D17000899170008A301000884
:1000C000A3010008A3010008A3010008A301000880
:1000D000A3010008091B0008A3010008A3010008F0
:1000E000A3010008A3010008A301000800F002F822
:1000F00000F03AF80AA090E8000C82448344AAF188
:100100000107DA4501D100F02FF8AFF2090EBAE885
:100110000F0013F0010F18BFFB1A43F0010318473B
:10012000FC1B00001C1C0000103A24BF78C878C1DA
:10013000FAD8520724BF30C830C144BF04680C60ED
:10014000704700000023002400250026103A28BF35
:1001500078C1FBD8520728BF30C148BF0B60704739
:100160001FB51FBD10B510BD00F058F81146FFF7C0
:10017000F7FF01F0E1FC00F076F803B4FFF7F2FFBF
:1001800003BC00F07DF8000009488047094800479B
:10019000FEE7FEE7FEE7FEE7FEE7FEE7FEE7FEE737
:1001A000FEE7FEE704480549054A064B7047000094
:1001B0008B170008ED000008880100208807002048
:1001C00088030020880300204FF0000200B513468A
:1001D00094469646203922BFA0E80C50A0E80C5067
:1001E000B1F12001BFF4F7AF090728BFA0E80C5018
:1001F00048BF0CC05DF804EB890028BF40F8042B11
:1002000008BF704748BF20F8022B11F0804F18BF7D
:1002100000F8012B7047704770477047754600F033
:100220002BF8AE4605006946534620F00700854688
:1002300018B020B5FFF7B6FFBDE820404FF000062C
:100240004FF000074FF000084FF0000B21F00701BE
:10025000AC46ACE8C009ACE8C009ACE8C009ACE801
:10026000C0098D46704710B50446AFF300802046A4
:10027000BDE81040FFF781BF00487047240100200F
:1002800001491820ABBEFEE7260002007047FEE7DA
:10029000704710B590F821100022022905D00421E2
:1002A000816380F82020012010BD01680B6823F0D5
:1002B0000E030B6001680B6823F001030B6090F8DC
:1002C0004030C46B012101FA03F3636080F8211010
:1002D00080F82020104610BD10B590F821100024A1
:1002E000022903D00421816301243DE001680A68EA
:1002F00022F00E020A6001680A6822F001020A6018
:100300001A4A0168914201D1012121E0174A1432B1
:10031000914201D110211BE0144A2832914201D1AF
:10032000891515E0114A3C32914201D189140FE040
:100330000E4A5032914202D14FF4803108E00B4A0C
:100340006432914202D14FF4801101E04FF080718C
:10035000064A083A5160012180F82110002180F8F6
:100360002010416B01B18847204610BD08000240B3
:100370002DE9F84FDFF8B8910024A9F1040B2346CA
:100380000F2709F1040AABF1040EC9E00125A540CD
:100390002A40AA427DD1674ED1F804C0ACEB0608D2
:1003A000B44532D014DCBCF1030F3AD009DCBCF107
:1003B000000F2AD0BCF1010F1CD0BCF1020F31D1CB
:1003C0001DE0BCF1110F17D0BCF1120F2AD119E0BA
:1003D000B8F5881F19D006DCB8F5803F15D0B8F500
:1003E000801F1FD111E0B8F5001F0ED0B8F5041F13
:1003F00018D10AE0CB6815E0CB681B1D12E0CB6872
:1004000008330FE0CB680C330CE08B682BB1012B69
:100410004FF0080303D0456104E0042302E00561C6
:1004200000E00023FF2A01D8064601E000F104069F
:100430004FEA840501D9A5F12005D6F8008007FA16
:1004400005FC28EA0C0803FA05F548EA0508C6F891
:1004500000804D68ED0062D5374DAE6946F001066B
:10046000AE61AD6924F0030605F001050095334D3A
:1004700006EB050CDCF80850A607360F07FA06F85D
:1004800025EA0805DFF8B880404503D14FF00008A1
:1004900017E044E0DFF8AC80404502D14FF001089E
:1004A0000FE0DFF8A480404502D14FF0020808E0D9
:1004B000DFF89880404502D14FF0030801E04FF08B
:1004C000040808FA06F848EA0508CCF808804D68E0
:1004D000D9F80060ED024D4601D5164300E0964381
:1004E0002E604D68DAF80060AD02554601D516431E
:1004F00000E096432E604D68DBF80060AD035D467A
:1005000001D5164300E096432E604D68DEF800608A
:10051000ED03754601D5164300E096432E60641C3A
:100520000D682A46E5407FF431AFBDE8F88F000042
:1005300008040140000011100010024000000140BA
:1005400000080140000C014000100140001401406F
:100550008068084000D001207047C26821EA020389
:100560000A4043EA0241016170470AB101617047E4
:100570000904FBE701488068704700003C00002048
:100580000248816802781144816070473C00002075
:10059000074810B5016841F010010160032000F028
:1005A00075F80F2000F006F800F024F8002010BDC8
:1005B0000020024070B50D4D04464FF47A71287842
:1005C000B1FBF0F00A490968B1FBF0F000F0DCFA89
:1005D00048B9102C07D200222146501E00F036F8F0
:1005E00000206C6070BD012070BD00003C00002048
:1005F000480000200C4808B5816941F00101816183
:10060000816901F001010091C16941F08051C1612E
:10061000C06900F0805000900448416821F0E0611A
:1006200041F00071416008BD00100240000001402F
:10063000002809DB00F01F020121914040098000E1
:1006400000F1E020C0F8001170470000F0B40E4B3C
:100650001B680C46C3F30223C3F10705042D00D920
:100660000425191D072901D2002300E0DB1E012605
:1006700006FA05F1491E214099409E40761E16401B
:100680003143F0BC01F047BA0CED00E0064900F040
:10069000070208684FF6FF03184040EA0220034AA9
:1006A00010430860704700000CED00E00000FA0500
:1006B0002DE9F0470F46050061D0434E306800F049
:1006C0000700B84209D2306820F007003843306094
:1006D000306800F00700B84251D128683B4C8107D0
:1006E00012D5400703D5606840F4E0606060287868
:1006F000000703D5606840F4605060606068A968D6
:1007000020F0F000084360602878C00728D06868AF
:10071000012810D02168022810D0890700292EDA7C
:10072000616821F0030101436160FFF723FF804608
:1007300041F288390DE021688903EFE78901EDE78F
:10074000FFF718FFA0EB0801494502D90320BDE8D7
:10075000F0876068696800F00C00B0EB810FEFD1A2
:10076000306800F00700B8420BD9306820F007006D
:1007700038433060306800F00700B84201D00120F3
:10078000E5E72878400705D56068E96820F4E0606F
:10079000084360602878000706D56068296920F45E
:1007A000605040EAC100606000F038F86168084AB3
:1007B000C1F30311515CC84006490860064800684F
:1007C000FFF7F8FE0020C2E70020024000100240C0
:1007D000021D000848000020400000200448054990
:1007E00000684968044AC1F30221515CC84070475F
:1007F0004800002000100240121D0008044805496E
:1008000000684968044AC1F3C221515CC84070477E
:100810004800002000100240121D00080E4A5168D6
:100820000E4801F00C03042B11D0082B0FD10C48FB
:10083000C1F38343C903C05C0AD55168084AC1F3B8
:100840004041921E515C054A5043B0FBF1F07047A5
:1008500004494843704700000010024000127A002B
:10086000F21C000800093D002DE9F84F040070D08B
:100870002078C04DC00749D06868C0F381000128C6
:1008800007D06868C0F38100022809D16868C003F6
:1008900006D52868800339D560680028E7D035E0A0
:1008A0006068B0F5803F0BD010B1B0F5A02F11D02B
:1008B000286820F480302860286820F4802002E036
:1008C000286840F480302860606890B1FFF752FEDD
:1008D00006460AE0286840F480202860F0E700BF60
:1008E000FFF748FE801B642873D828688003F7D57B
:1008F0000CE0FFF73FFE064605E000BFFFF73AFEBB
:10090000801B6428F0D828688003F7D420789A4E9A
:1009100080074FF001094FF0000839D5686810F0E2
:100920000C0F07D06868C0F38100022809D16868FD
:10093000C00306D42868800714D52069012808D18F
:1009400010E02069B0B1C6F80090FFF713FE07462B
:1009500005E00AE1FFF70EFEC01B0228C4D8286894
:100960008007F7D52868616920F0F80040EAC100E7
:1009700028600DE0C6F80080FFF7FCFD074604E0A4
:10098000FFF7F8FDC01B022823D828688007F7D49A
:10099000207800072CD57948A169D9B1C0F800901A
:1009A000FFF7E8FD074604E0FFF7E4FDC01B02285F
:1009B0000FD8686A8007F7D571484FF4FA5100687C
:1009C000B0FBF1F0009000BF0098411E0091FAD2F8
:1009D0000EE080E0C0F80080FFF7CCFD074604E0A1
:1009E000FFF7C8FDC01B022875D8686A8007F7D4D6
:1009F0002078400760D5E8690027C00008D4E8697E
:100A000040F08050E861E869012700F080500090D4
:100A10005C480168C90513D40168834641F48071BC
:100A20000160FFF7A7FD824606E000BFFFF7A2FDC9
:100A3000A0EB0A0064284ED8DBF80000C005F5D50D
:100A4000E06801280AD008B1052813D0286A20F0F0
:100A500001002862286A20F0040002E0286A40F0C1
:100A600001002862E06841F2883B98B1FFF782FDFF
:100A700082460BE0286A40F004002862EEE700BFDF
:100A8000FFF778FDA0EB0A0159455AD8286A80077C
:100A9000F6D50CE0FFF76EFD824605E0FFF76AFD34
:100AA000A0EB0A0159454CD8286A8007F6D41FB13B
:100AB000E86920F08050E861E06988B36968C1F3B3
:100AC0008101022944D00228C6F8608004D0FFF7D3
:100AD00051FD044638E034E0FFF74CFD074604E0E2
:100AE000FFF748FDC01B02282BD828688001F7D4E7
:100AF000206AB0F5803F05D16868A16820F4003015
:100B000008436860D4E908010843696821F4741156
:100B100008436860C6F86090FFF72CFD044606E0C5
:100B200025E000BFFFF726FD001B022809D8286832
:100B30008001F7D51BE000BFFFF71CFD001B02285A
:100B400002D90320BDE8F88F28688001F4D40EE0B4
:100B50000128F7D06868226A00F48031914204D1FC
:100B6000616A00F47010884201D00120EAE7002099
:100B7000E8E70000001002400000424280044242C8
:100B8000480000200070004010B5401EB0F1807F8A
:100B900001D3012010BD4FF0E02460610F216017E8
:100BA00000F0B9FF0020A06107202061002010BDE7
:100BB0007047704770B590F83C20012A26D0012478
:100BC00080F83C40022280F83D2003685A689D6806
:100BD00022F070060A6832435A600D4B02689A424E
:100BE00008D0B2F1804F05D00A4B9A4202D00A4B8E
:100BF0009A4204D1496825F080031943916080F836
:100C00003D40002180F83C10084670BD022070BDB8
:100C1000002C0140000400400008004010B5040012
:100C200003D094F83D0010B107E0012010BD002072
:100C300084F83C00204600F01FF8022084F83D00B4
:100C4000211D206800F0AEFD012084F8460084F8E4
:100C50003E0084F83F0084F8400084F8410084F8A6
:100C6000420084F8430084F8440084F8450084F886
:100C70003D00002010BD000008B5154A0168154868
:100C800091420ED1C16941F00201C161C0690022E7
:100C900000F00200009002211D20FFF7D7FC1D206C
:100CA00010E00D4A914211D1C16941F00401C161C6
:100CB000C069002200F00400009001211E20FFF70F
:100CC000C5FC1E20BDE80840FFF7B2BC08BD00000F
:100CD00000040040001002400008004090F83D1061
:100CE000012901D001207047022180F83D100168E0
:100CF000CA6842F00102CA6000680B49884208D005
:100D0000B0F1804F05D00949884202D00849884295
:100D100004D1816801F00701062903D0016841F080
:100D20000101016000207047002C014000040040D8
:100D30000008004070B5044690F83C0000250128EA
:100D400017D0012684F83C60022084F83D0020681A
:100D5000826822F0770222F47F428260086850287D
:100D600038D00DDC20284FD005DC90B3102811D1ED
:100D70004AE0022070BD302846D040280AD13BE02E
:100D800060282FD070280DD0B0F5805F03D0B0F56B
:100D9000005F12D0012584F83D60002084F83C00FB
:100DA000284670BDCB68D1E90121206800F036FDEE
:100DB0002068816841F0770109E0CB68D1E9012121
:100DC000206800F02BFD2068816841F4804181603B
:100DD000E1E719E0CA684968206800F031FD502158
:100DE000206806E0CA684968206800F03AFD602182
:100DF000206800F01DFDCEE7CA684968206800F051
:100E00001FFD40212068F4E7226801461046F0E704
:100E100070472DE9F04104460068C66805694FF047
:100E20000007A90713D5B10711D5F91E01610120EB
:100E30002077206880698007204602D0FFF7E8FF0E
:100E400004E000F07EF8204600F07CF82777680781
:100E500016D5700714D521686FF0040008610220D0
:100E600020772068806910F4407F204602D0FFF789
:100E7000CFFF04E000F065F8204600F063F8277724
:100E8000280715D5300713D521686FF008000861D1
:100E9000042020772068C0698007204602D0FFF731
:100EA000B7FF04E000F04DF8204600F04BF827773C
:100EB000E80616D5F00614D521686FF01000086119
:100EC000082020772068C06910F4407F204602D0B7
:100ED000FFF79EFF04E000F034F8204600F032F8FF
:100EE0002777E80708D0F00706D021686FF00100E7
:100EF0000861204600F028F8280608D5300606D5F7
:100F000021686FF0800008612046FFF751FE6806F7
:100F100008D5700606D521686FF0400008612046AC
:100F200000F066F8A8060AD5B00608D521686FF06B
:100F3000200008612046BDE8F041FFF73ABEBDE859
:100F4000F0817047704700002DE9F04105460068C8
:100F50002249234C884237D18615224F012231463F
:100F60003846FFF702FB0A23052204F134011E482C
:100F700000F07CFA002231463846FFF7F6FAD4E951
:100F80000701411A6162A17809B100216162206202
:100F900048F6A041606A4A104318934203D2A26AFD
:100FA000104408440FE002448A4202D8A16A08446F
:100FB00009E0A0F58C42513A44F24F639A4203D8BB
:100FC000081AA16A081AA06208492868884202D152
:100FD000E068401CE060BDE8F081000000080040CF
:100FE0000000002000080140DC0000200004004058
:100FF0007047704770470000F8B5016804460868FC
:10100000CA684B6910F00F0F4FF000055AD003F07B
:10101000010602F49077374365D0C10705D0D105AA
:1010200003D5616C41F001016164410705D5D90721
:1010300003D0616C41F002016164810705D5D907D5
:1010400003D0616C41F004016164010707D502F02F
:101050002001314303D0616C41F008016164616C8F
:1010600000293BD0800604D5900602D5204600F02A
:1010700039FC20684069616CC0F3801001F0080100
:10108000014320462BD000F006FC20684069400652
:1010900021D52068143050E8001F21F0400140E8BD
:1010A0000012002AF5D1E06BA8B16D494163E06BF5
:1010B000FFF712F9002811D0E06B416B01B0BDE8D9
:1010C000F040084783060ED593060CD52046BDE8B0
:1010D000F84000F007BC2046FFF78CFFF8BDFFF793
:1010E00089FF6564F8BD266B2023012E7CD1C606DE
:1010F0007AD5D60678D508684868009048694FF0D8
:101100000206400640D5E16B086840680004000C08
:10111000E8D0A28D8242E5D9E085886920282DD0CB
:1011200020680C3050E8001F21F4807140E8001264
:10113000002AF5D12168143151E8000F20F0010098
:1011400041E80002002AF5D12068143050E8001F61
:1011500021F0400140E80012002AF5D184F8423025
:10116000256320680C3050E8001F21F0100140E892
:101170000012002AF5D1E06BFFF78BF86663A08DB3
:10118000E18D401A81B22AE0A08DE18D401A81B232
:10119000E08D0028A6D00029A4D022680C3252E8A5
:1011A000000F20F4907042E80007002FF5D120686E
:1011B000143050E8002F22F0010240E80027002FF1
:1011C000F5D184F84230256320680C3050E8002FB8
:1011D00022F0100240E80023002BF5D16663204680
:1011E000FFF707FFF8BDFFE705062BD5150629D544
:1011F00094F841002128F5D1A068B0F5805F01D1B5
:101200002069B0B1206A411C2162216800784860E1
:10121000E08C401E0004000CE084E3D12068C1682B
:1012200021F08001C1602068C16841F04001C160C7
:10123000D8E7206A0088C0F308004860206A801C54
:101240002062E5E74006CDD55006CBD5CA682046DA
:1012500022F04002CA6084F8413000F057F9C1E73B
:101260008718000870B5040004D094F841000025E8
:1012700010B106E0012070BD84F84050204600F017
:1012800023F8242084F841002068C16821F400512B
:10129000C160204600F088FB2068016921F490417C
:1012A00001612068416921F02A0141612068C1681B
:1012B00041F40051C1606564202084F8410084F845
:1012C00042006563002070BD30B585B000240094F5
:1012D0000194029403940068184988422CD118485C
:1012E000816941F480418161816901F48041049107
:1012F000816941F0040181618069124D00F00400B0
:1013000004904FF40070009002200190032003909D
:1013100069462846FFF72CF82815CDE900046946F0
:1013200028460294FFF724F8002211462520FFF7F3
:101330008DF92520FFF77CF905B030BD003801405C
:10134000001002400008014090F84230202B01D0EC
:101350000220704721B11AB10023036300F080BB63
:101360000120704770B501223E493F48FFF7ECFF6E
:101370003C480021C01E02780E2A33D2DFE802F07A
:10138000070C141A222426282A2C333A4148C17803
:10139000772927D1012163E0C2780D2A60D1C17974
:1013A0000D31C17102215BE0C27812BBC179C171FC
:1013B000032155E0C278842A52D1C1798431C171A8
:1013C00004214DE0052108E0062106E0072104E0A4
:1013D000082102E0092100E00A210170C179C278E8
:1013E0001144C17170BDC1780171C2791144C171DC
:1013F0000B2135E0C1784171C2791144C1710C21D2
:101400002EE0C1788171C2791144C1710D2127E0AC
:10141000C278C3799A4223D1826942F21073521C76
:101420008261027902F00F025A4343791C0904EBEE
:101430004405C5EBC41402EBC40203F00F0303EB35
:10144000C30404EB031302EB83038279140904EB56
:10145000840403EB440302F00F021A44C261C17119
:10146000017070BD03000020DC0000202DE9F8436E
:10147000044690F84100984616460D46202802D0B2
:101480000220BDE8F88385B17EB100206064212090
:1014900084F84100FFF76EF8A6848146E684A068D0
:1014A0002027B0F5805F02D003E00120E9E7206942
:1014B00010B12E4600250EE000260CE080212046CB
:1014C00000F0E9FAA8B9C6B116F8010B2168486026
:1014D000E08C401EE084E08C4B464FF00002CDF8DB
:1014E00000800028EAD14FF04001204600F0D3FAF6
:1014F00040B184F841700320C3E735F8020BC0F314
:101500000800E3E784F841700020BAE77047FEE77F
:101510002DE9F041084C06464FF40047DFF81C80E7
:10152000E56803E039464046FFF717F8E068401BDE
:10153000B042F7D3BDE8F081000000200010014068
:101540002DE9F04F85B000253E48009501950295A4
:101550000395816941F010018161816901F01001F9
:101560000491816941F020018161816901F02001CC
:101570000491816941F004018161816901F00401F4
:101580000491816941F0080181618069012200F0C4
:101590000800DFF8B4905403049021464846FEF753
:1015A000E4FF4FF44047002239464846FEF7DDFF8E
:1015B000DFF898A000224FF4BF715046FEF7D5FF28
:1015C000DFF88CB04FF40048002241465846FEF741
:1015D000CCFF009401240226CDE902466946484624
:1015E0000194FEF7C5FE01AA009782E870006946E3
:1015F0004846FEF7BDFE4FF483708DE831000320AE
:10160000039069465046FEF7B3FE78208DE87100DE
:1016100069465046FEF7ACFE01AACDF8008082E88C
:10162000700069465846FEF7A3FE4FF46070CDE99E
:101630000005694602945846FEF79AFE05B0BDE8DB
:10164000F08F00000010024000100140000801402F
:10165000000C014010B586B0002416480094019497
:101660000294039404941249059401604721C0E94F
:1016700001140921C0E903148461FFF7CFFA08B10E
:1016800072B6FEE74FF48050009069460948FFF7B4
:1016900051FB08B172B6FEE7049404A9054805940D
:1016A000FFF788FA002801D072B6FEE706B010BD39
:1016B000000400404C00002010B586B000241748FC
:1016C00000940194029403940494134905940160D6
:1016D00040F2CF21C0E9011440F2E731C0E9031420
:1016E0008461FFF79BFA08B172B6FEE74FF48050B1
:1016F000009069460948FFF71DFB08B172B6FEE786
:10170000049404A905480594FFF754FA002801D071
:1017100072B6FEE706B010BD00080040940000203D
:10172000FEE7FEE770477047FEF72ABF30B58FB07F
:1017300028216846FEF748FD14210AA8FEF744FD5B
:1017400001210804CDE9001000240294022504912F
:10175000CDE907504FF4E01009906846FFF784F890
:1017600008B172B6FEE70F20CDE90A054FF480609C
:10177000CDE90C4002210AA80E94FEF799FF00283B
:1017800001D072B6FEE70FB030BD70470148FFF7D9
:1017900040BB00004C0000200148FFF73ABB0000AE
:1017A00094000020F0B50268194B1A4C1A4D4FF006
:1017B0008047984205D0B84203D0A04201D0A84249
:1017C00003D122F070064A683243984205D0B842ED
:1017D00003D0A04201D0A84203D122F44074CA68C9
:1017E00022434C6922F08002224302608A68C2626E
:1017F0000A688262984201D109690163012141614D
:101800000169C90703D0016921F001010161F0BD3F
:10181000002C0140000400400008004010B584681E
:1018200042EA032224F47F440A432243826010BD2B
:10183000826822F070020A4342F00701816070471B
:1018400010B5036A046A24F001040462846924F078
:10185000F00444EA021423F00A020A43846102629B
:1018600010BD10B5036A046A24F010040462846990
:1018700023F0A00324F4704444EA023243EA011145
:101880008261016210BD10B5406A0021C185C1842A
:10189000FFF7B0FB10BD01680C3151E8002F22F4B6
:1018A000907241E80023002BF5D10168143151E812
:1018B000002F22F0010241E80023002BF5D1016B3B
:1018C000012909D101680C3151E8002F22F01002E2
:1018D00041E80023002BF5D1202180F8421000219F
:1018E0000163704708B590F84210222901D0022008
:1018F00008BD82684FF480539A4201D1016921B139
:10190000816A9A421BD04AB10AE00268816A526831
:10191000C2F308020A80816A891C08E0026972B178
:101920000268526802F07F020A70816A491C816273
:10193000C18D491E0904090CC18503D01BE0026852
:101940005268F1E70168CA6822F02002CA600168A3
:10195000CA6822F48072CA6001684A6922F00102F2
:101960004A61202180F8421000214163026B012A64
:1019700003D0FFF7F7FC002008BD016301680C31BC
:1019800051E8002F22F0100241E80023002BF5D18E
:1019900001680A68D20602D50A6849680091818DFB
:1019A000FFF727FBE7E7000070B504460068016910
:1019B000E26821F44051114301612169A0680843A4
:1019C000616908432168CA6841F20C639A43024383
:1019D000CA6020684169A26921F4407111434161E4
:1019E0001E492068884202D1FEF708FF01E0FEF799
:1019F000F5FE00EBC00101EB00126068642180007D
:101A0000B2FBF0F3B3FBF1F36FF018067343B2FBD4
:101A1000F0F5B2FBF0F605EB8305322303EB051579
:101A2000B5FBF1F5B6FBF1F605F0F00505EB061593
:101A3000B2FBF0F6B2FBF0F0B0FBF1F06FF0180281
:101A4000504306EB800003EB0010B0FBF1F021687F
:101A500000F00F002844886070BD0000003801408D
:101A600081628285C28500214164222180F8421072
:101A7000016921B10168CA6842F48072CA600168D4
:101A80004A6942F001024A610068C16841F02001E0
:101A9000C160002070472DE9F843984617460D466F
:101AA0000446089E24E0701C22D0FEF763FDA0EBE4
:101AB0000800B0421AD8CEB12068C168490717D5CE
:101AC000802D15D0402D13D00168C94309070FD4CC
:101AD00001680025406800902046FFF7DCFE0820E2
:101AE000606484F840500120BDE8F8830320FBE7E0
:101AF0002068006835EA000004D00020B842D2D047
:101B00000020F1E70120F9E70148FFF775BA00006E
:101B1000DC000020FEE70907090E002804DB00F1C5
:101B2000E02080F80014704700F00F0000F1E02082
:101B300080F8141D70470000FEF72AFDFFF7F6FD40
:101B4000FFF7FEFC644863494FF0000801604FF462
:101B5000E131C0E901180C22C0F80C80C0E9048210
:101B6000C0F81880C0F81C80FFF77CFB08B172B683
:101B7000FEE7FFF7A1FDFFF76DFD57484838FFF777
:101B8000ADF855489038FFF7A9F80122534952485B
:101B9000FFF7DAFB524F002240213846FEF7E5FC02
:101BA000002220213846FEF7E0FC012210213846B1
:101BB000FEF7DBFC002208213846FEF7D6FC474C36
:101BC000484E4FF02D094FF4007A4FF4005BE41EAD
:101BD000E06820616169411A642935D96061A06AB1
:101BE000E26A410091FBF9F3934214DA01220421E5
:101BF0003846FEF7BAFC012202213846FEF7B5FC52
:101C00000120FFF785FC002202213846FEF7ADFCDB
:101C1000E06A401E17E091FBF9F0904214DD0022CB
:101C200004213846FEF7A1FC012202213846FEF7C6
:101C30009CFC0120FFF76CFC002202213846FEF7D5
:101C400094FCE06A401CE06251463046FEF780FC9E
:101C500000B101202072617821B1012908D0022948
:101C600010D119E070B901206070E068206309E0CC
:101C7000226BE168891A1C4A914203D960B100BF06
:101C800084F80180A0780028A2D080213046FEF799
:101C90005FFC60B101250BE0A078594680F001009F
:101CA000A07080F001021148FEF75FFCE8E7002514
:101CB000607A85420BD04FF480713046FEF748FCC5
:101CC000A842A06A01D0193000E01938A0626572FC
:101CD0007EE7000000380140DC0000200300002007
:101CE00000080140000C0140A086010000100140E6
:101CF000010202030405060708090A0B0C0D0E0F6A
:101D0000101000000000000000000102030406079C
:101D10000809000000000102030400003C1D000847
:101D2000000000204C00000028010008881D000869
:101D30004C0000203C0700004401000800000000A7
:101D40000000000000000000000000000000000093
:101D50000000000000000000000000000000000083
:101D60000000000000000000000000000000000073
:101D700077040004080000000100000010000000CB
:081D80000000000000127A00CF
:04000005080000ED02
:00000001FF
